:020000040000FA
:0400000017EF00F006
:100008003082D9CF09F0DACF0AF0A3BAA4AA05D072
:1000180090EC02F08DEC01F0A49A0AC0DAFF09C056
:10002800D9FF3092110085EF02F0000EE8EC01F0E4
:10003800146EA00E1418D8B414D0150E136E4B0EEF
:10004800126EBE0EE82EFED7122EFCD7132EFAD74C
:1000580000D0000EE8EC01F0146EA00E1418D8A41D
:100068001200000E0D6E3D0E40EC02F0200E0D6EDB
:100078003F0E40EC02F09C0E126ED70EE82EFED713
:10008800122EFCD700F007D0340E126EF20EE82EB6
:10009800FED7122EFCD7000EE8EC01F0A00AD8A477
:1000A800F3D7020E136E040E126EBA0EE82EFED7A8
:1000B800122EFCD7132EFAD700D0000E0D6E3E0E6E
:1000C80040EC02F0340E126EF20EE82EFED7122E1D
:1000D800FCD7000E0D6E070E40EC02F0000E0D6E00
:1000E8003F0E40EC02F0340E126EF20EE82EFED7F0
:1000F800122EFCD70C0E0D6E3D0E40EC02F0680E71
:10010800126EE40EE82EFED7122EFCD700D0120095
:10011800000E0D6E110E0E6E400EFEEC01F0FE0E7E
:100128000D6E790E0E6E400EFEEC01F0000E0D6E97
:10013800010E0E6E400EFEEC01F0000E106E105017
:10014800040DF350060F0D6E000E0E6E400EFEEC01
:1001580001F01050040DF350070F0D6E000E0E6ED7
:10016800400EFEEC01F01050040DF350080F0D6E18
:10017800000E0E6E400EFEEC01F01050040DF35010
:10018800090F0D6E000E0E6E400EFEEC01F0102AE7
:100198000F0E1064D4D71200000E136E000E146EEA
:1001A800000E156E000E166E0F5010101110121062
:1001B800D8B42AD0010E176E06D0D8900F36103654
:1001C80011361236172A12AEF8D7D89013361436CD
:1001D800153616360F500B5C10500C5811500D5830
:1001E80012500E58D8A009D00F500B5E10500C5A60
:1001F80011500D5A12500E5A1380D89012321132E3
:1002080010320F32172EE1D713C00BF014C00CF0C8
:1002180015C00DF016C00EF012000F013A973A996A
:10022800948694889D96000E0B6E240E0C6EF40E28
:100238000D6E000E0E6E18C01CF019C01DF01AC00D
:100248001EF01BC01FF0020ED8901C361D361E363D
:100258001F36E82EF9D71CC00FF01DC010F01EC0C5
:1002680011F01FC012F0D0EC00F00B04C86EC78E5E
:10027800C68AC650F00B0809C66ECB86C78CC69EC8
:10028800C69CC584C5A41200FDD70E6E0EC02DF005
:100298008082000E0B6E010E4FEC02F0000E0B6E0A
:1002A8000E504FEC02F08092000E0F6E2C50D8A426
:1002B8000CD0060E0D6E300EE82EFED70D2EFCD794
:1002C80000D00F2A040E0F64F1D7000E2C6E120016
:1002D8000E6EC69C270E0D6E100E0C6EC5860BD0CA
:1002E8000C06D8A00D060C500D10D8A404D09BEC19
:1002F80002F0000E1200C7A0F3D7C9CF0FF00EB05E
:1003080002D0C59A01D0C58AC588C5B8FED70F5096
:1003180012002B50D8A407D02FC02EF0010E2B6E40
:10032800000E2C6E12002EC001F02F50CAEC01F006
:100338000009D8B408D0210E2D24D96EDA6A000E2F
:10034800DA222EC0DFFF000E2B6E010E2C6E12007B
:10035800700ED312D350FC0B0209D36ED39610EC57
:1003680002F0A00E186E860E196E010E1A6E000E9F
:100378001B6E11EC01F019EC00F08CEC00F031EC84
:1003880002F022EC02F0A1EC02F01200086E085014
:10039800026E036A0150046E056AAA0E0412000E6A
:1003A80005120150AA0B066E076A0450061A05507A
:1003B800071A0250061806E103500718D8A402D0FD
:1003C800010E1200000E1200106EA5EC02F0500E85
:1003D80079EC02F0105079EC02F0A9EC02F0510E21
:1003E80079EC02F0010E6CEC01F0116E9BEC02F05E
:1003F800115012000F6EA5EC02F00F500F240F6E73
:100408000F5079EC02F00D5079EC02F00E5079ECB7
:1004180002F09BEC02F01200000E0F013B6F000E81
:100428003A6F000E396F000E3C6F000E386F000EE9
:10043800936E929092928080809212000F013B9D61
:100448003B9F958C958E718E729871887284708698
:10045800A00E756E010E766E12000F013A9D3A9F3E
:10046800948C948EAB8EAC98AB98AC84B886A00E66
:10047800AF6E010EB06E12000E6EA5EC02F0500EBB
:1004880079EC02F00E5079EC02F00D5079EC02F0A4
:100498009BEC02F012000C6E728A0CC073FF72A201
:1004A800FED70B50D8B404D00A0E736E72A2FED7D2
:1004B800729A1200ACEC01F0010E206E205049EC4B
:1004C80001F0202A080E2064F9D728C081FFF4D74C
:1004D800C7A403D00B6A0B2A01D00B6AC5501F0BA7
:1004E8000B100009D8B41200F3D70C6EC69E0CC0CE
:1004F800C9FF6CEC02F0C5AC1200C584C5A412009B
:10050800FDD700EE21F00F0EEE6AE806FDE130900F
:10051800309200015EEF02F071A202D071987188EA
:1005280071A402D0719E718E74CF2FF012006CEC02
:1005380002F0C584C5A41200FDD7A38AF28CF28EFE
:100548001200C580C5A01200FDD7C582C5A2120041
:02055800FDD7CD
:020000040020DA
:08000000FFFFFFFFFFFFFFFF00
:020000040030CA
:0E000000FF081F3CFFB580FF0FC00FE00F4050
:00000001FF
