:020000040000FA
:0400000010EF00F00D
:100008000582A3BAA4AA06D071A202D071987188F9
:1000180074CF04F0059211006EEF00F0000E0F018E
:100028003B6F000E3A6F000E396F000E3C6F000EEA
:10003800386F92909292808080929390120041EC57
:1000480000F0010E016E045032EC00F0340E036E25
:10005800F20EE82EFED7032EFCD7F3D7026EAC8A39
:1000680002C0ADFFACA2FED70150D8B404D00A0E2E
:10007800AD6EACA2FED7AC9A1200700ED312D3505C
:10008800FC0B0209D36E12EC00F05FEC00F050ECB0
:1000980000F07CEC00F012000F013B9D3B9F958C1B
:1000A800958E718E7298718872847086A00E756EA6
:1000B800010E766E12000F013A9D3A9F948C948E31
:1000C800AB8EAC98AB98AC84B886A00EAF6E010E20
:1000D800B06E1200000EF66E010EF76E000EF86E8E
:1000E8000900F5CF04F005900592000123EF00F018
:0900F800A38AF28CF28E12002D95
:020000040020DA
:08000000FFFFFFFFFFFFFFFF00
:020000040030CA
:0E000000FF081F3CFFB580FF0FC00FE00F4050
:00000001FF
