:020000040000FA
:0400000010EF00F00D
:100008000582A3BAA4AA06D071A202D071987188F9
:1000180074CF04F0059211006FEF00F0700ED31248
:10002800D350FC0B0209D36E000E0F013B6F000E7C
:100038003A6F000E396F000E3C6F000E386F4EECB1
:1000480000F03CEC00F092900F01389192923893B6
:10005800808080929390010E016E045060EC00F055
:10006800340E036EF20EE82EFED7032EFCD7F3D71C
:100078000F013B9D3B9F958C958E718E7298718870
:1000880072847086A00E756E010E766EA38AF28C4D
:10009800F28E12000F013A9D3A9F948C948EAB8E8B
:1000A800AC98AB98AC84B886A00EAF6E010EB06E5B
:1000B8009D9AF29CF29E1200026EAC8A02C0ADFFBD
:1000C800ACA2FED70150D8B404D00A0EAD6EACA2D3
:1000D800FED7AC9A1200FA0EF66E000EF76E000EFE
:1000E800F86E0900F5CF04F005900592000112EFB3
:0300F80000F061B4
:020000040020DA
:08000000FFFFFFFFFFFFFFFF00
:020000040030CA
:0E000000FF081F3CFFB580FF0FC00FE00F4050
:00000001FF
