:020000040000FA
:0400000017EF00F006
:100008003782D9CF09F0DACF0AF0A3BAA4AA05D06B
:100018006DEC05F02DEC04F0A49A0AC0DAFF09C0D3
:10002800D9FF3792110062EF05F04CEC04F0010E95
:10003800246E2450C8EC03F0242A080E2464F9D74F
:10004800000E3BEC05F00009D8B430D074EC03F096
:10005800000E196E320E186E020EFFEC02F0000E42
:10006800196E320E186E030EFFEC02F0000E196EB8
:10007800320E186E040EFFEC02F0000E196E320EEE
:10008800186E050EFFEC02F0150E236E4B0E226E55
:10009800BE0EE82EFED7222EFCD7232EFAD700D08C
:1000A80074EC03F0000E88EC04F0B6D0020E3BECC2
:1000B80005F00009D8B422D074EC03F0000E196ED4
:1000C800320E186E020EFFEC02F0000E196E320EA0
:1000D800186E040EFFEC02F0150E236E4B0E226E06
:1000E800BE0EE82EFED7222EFCD7232EFAD700D03C
:1000F80074EC03F0020E88EC04F08ED0010E3BEC99
:1001080005F00009D8B422D074EC03F0000E196E83
:10011800320E186E030EFFEC02F0000E196E320E4E
:10012800186E050EFFEC02F0150E236E4B0E226EB4
:10013800BE0EE82EFED7222EFCD7232EFAD700D0EB
:1001480074EC03F0010E88EC04F066D0030E3BEC6F
:1001580005F00009D8B404D0030E88EC04F05CD094
:10016800040E3BEC05F00009D8B404D0040E88EC6A
:1001780004F052D0050E3BEC05F00009D8B422D0AB
:1001880074EC03F0000E196E320E186E000EFFECC0
:1001980002F0000E196E320E186E010EFFEC02F01E
:1001A800150E236E4B0E226EBE0EE82EFED7222EA3
:1001B800FCD7232EFAD700D074EC03F0050E88EC98
:1001C80004F02AD0060E3BEC05F00009D8B422D082
:1001D80074EC03F0000E196E320E186E020EFFEC6E
:1001E80002F0000E196E320E186E040EFFEC02F0CB
:1001F800290E236E960E226E7F0EE82EFED7222E33
:10020800FCD7232EFAD700F074EC03F0020E88EC2A
:1002180004F002D013EC01F0B5EC04F008D7265036
:100228006408266E27506408276E28506408286ED4
:1002380029506408296E360E276430D027C018F07C
:10024800196A000E1B6E370E1A6E000E1D6E640EB4
:100258001C6E000E1F6E000E1E6E000E216E320EFA
:10026800206E0CEC04F01850366E36C018F0196A7F
:10027800020EFFEC02F036C018F0196A030EFFEC0C
:1002880002F036C018F0196A040EFFEC02F036C00E
:1002980018F0196A050EFFEC02F073D02E0E2760D5
:1002A80001D06FD0360E266424D026C018F0196A03
:1002B800000E1B6E370E1A6E000E1D6E640E1C6E3D
:1002C800000E1F6E000E1E6E000E216E320E206E86
:1002D8000CEC04F01850356E35C018F0196A030E8E
:1002E800FFEC02F035C018F0196A050EFFEC02F0B9
:1002F80048D02E0E266029D026502D08186E000EE4
:10030800D8A0E82A0008196E000E1B6E000E1A6E9F
:10031800000E1D6E2D0E1C6E000E1F6E000E1E6E42
:10032800000E216E320E206E0CEC04F01850356E63
:1003380035C018F0196A020EFFEC02F035C018F04B
:10034800196A040EFFEC02F01CD0000E196E000EA4
:10035800186E020EFFEC02F0000E196E000E186EF9
:10036800030EFFEC02F0000E196E000E186E040E5C
:10037800FFEC02F0000E196E000E186E050EFFEC71
:1003880002F0360E296424D029C018F0196A000E2C
:100398001B6E370E1A6E000E1D6E640E1C6E000E5C
:1003A8001F6E000E1E6E000E216E320E206E0CECBB
:1003B80004F01850346E34C018F0196A000EFFECBF
:1003C80002F034C018F0196A010EFFEC02F01200B6
:1003D8002E0E296001D01200360E286401D01200BA
:1003E8002E0E286001D01200000E196E000E186E35
:1003F800000EFFEC02F0000E196E000E186E010ED2
:10040800FFEC02F01200000E9FEC04F0146EA00E38
:100418001418D8B414D0150E136E4B0E126EBE0EEF
:10042800E82EFED7122EFCD7132EFAD700D0000ED6
:100438009FEC04F0146EA00E1418D8A41200000E3D
:100448000D6E3D0E1DEC05F0200E0D6E3F0E1DECE1
:1004580005F09C0E126ED70EE82EFED7122EFCD792
:1004680000F007D0340E126EF20EE82EFED7122ED0
:10047800FCD7000E9FEC04F0A00AD8A4F3D7020E14
:10048800136E040E126EBA0EE82EFED7122EFCD78B
:10049800132EFAD700D0000E0D6E3E0E1DEC05F09F
:1004A800340E126EF20EE82EFED7122EFCD7000E76
:1004B8000D6E070E1DEC05F0000E0D6E3F0E1DECC7
:1004C80005F0340E126EF20EE82EFED7122EFCD76F
:1004D8000C0E0D6E3D0E1DEC05F0680E126EE40E4E
:1004E800E82EFED7122EFCD700D01200000E0D6E9B
:1004F800110E0E6E400EEDEC04F0FE0E0D6E790E30
:100508000E6E400EEDEC04F0000E0D6E010E0E6E38
:10051800400EEDEC04F0000E106E1050040DF35078
:10052800060F0D6E000E0E6E400EEDEC04F010502E
:10053800040DF350070F0D6E000E0E6E400EEDEC1D
:1005480004F01050040DF350080F0D6E000E0E6EDF
:10055800400EEDEC04F01050040DF350090F0D6E31
:10056800000E0E6E400EEDEC04F0102A0F0E106413
:10057800D4D71200000E136E000E146E000E156E06
:10058800000E166E0F50101011101210D8B42AD089
:10059800010E176E06D0D8900F3610361136123667
:1005A800172A12AEF8D7D8901336143615361636E1
:1005B8000F500B5C10500C5811500D5812500E581B
:1005C800D8A009D00F500B5E10500C5A11500D5A7C
:1005D80012500E5A1380D8901232113210320F3244
:1005E800172EE1D713C00BF014C00CF015C00DF096
:1005F80016C00EF012001A6E195004E1650E185C50
:10060800D8A004D0000E196E640E186E18C00BF036
:1006180019C00CF0000E0E6ECD0E0D6EC8EC04F075
:100628000BC011F00CC012F0000E146E640E136EA5
:100638009FEC03F011C018F012C019F0CD0E182667
:10064800000E19221A50040DF350080F0D6E18C031
:100658000EF0400EEDEC04F01A50040DF350090FA3
:100668000D6E19500F0B0E6E400EEDEC04F01200DB
:100678000F013A973A99948694889D96000E0B6ECE
:10068800240E0C6EF40E0D6E000E0E6E18C01CF0CB
:1006980019C01DF01AC01EF01BC01FF0020ED89022
:1006A8001C361D361E361F36E82EF9D71CC00FF033
:1006B8001DC010F01EC011F01FC012F0BEEC02F0F9
:1006C8000B04C86EC78EC68AC650F00B0809C66EE2
:1006D800CB86C78CC69EC69CC584C5A41200FDD710
:1006E800000E196E000E186E020EFFEC02F0000EDE
:1006F800196E000E186E030EFFEC02F0000E196E54
:10070800000E186E040EFFEC02F0000E196E000EBB
:10071800186E050EFFEC02F0000E196E000E186E32
:10072800000EFFEC02F0000E196E000E186E010E9E
:10073800FFEC02F01200000E166E000E156E13503C
:100748001410D8B41CD0010E176E04D0D8901336EC
:100758001436172A14AEFAD7D89015361636135011
:10076800115C14501258D8A005D01350115E1450C3
:10077800125A1580D89014321332172EEDD715C09F
:1007880011F016C012F012000E6E0EC031F0808209
:10079800000E0B6E010E2CEC05F0000E0B6E0E50C9
:1007A8002CEC05F08092000E0F6E3050D8A40CD0BF
:1007B800060E0D6E300EE82EFED70D2EFCD700D09B
:1007C8000F2A040E0F64F1D7000E306E12000E6E61
:1007D800C69C270E0D6E100E0C6EC5860BD00C062F
:1007E800D8A00D060C500D10D8A404D078EC05F054
:1007F800000E1200C7A0F3D7C9CF0FF00EB002D079
:10080800C59A01D0C58AC588C5B8FED70F50120051
:100818001A50185C0B6E1B5019580C6E1E50205C39
:100828000D6E1F5021580E6EC8EC04F00BC011F06D
:100838000CC012F01A501C5C136E1B501D58146E1D
:100848009FEC03F01E501124186E1F501220196ED1
:1008580012002F50D8A407D033C032F0010E2F6EEB
:10086800000E306E120032C001F033506AEC04F012
:100878000009D8B408D0250E3124D96EDA6A000EE2
:10088800DA2232C0DFFF000E2F6E010E306E12002A
:10089800700ED312D350FC0B0209D36ED396DBEC47
:1008A80004F0A00E186E860E196E010E1A6E000E58
:1008B8001B6E3CEC03F007EC02F07AEC02F00EEC55
:1008C80005F0FFEC04F07EEC05F01200086E08500D
:1008D800026E036A0150046E056AAA0E0412000E25
:1008E80005120150AA0B066E076A0450061A055035
:1008F800071A0250061806E103500718D8A402D0B8
:10090800010E1200000E12000E6E0EC00BF0010E4A
:100918000C6E000E0D6E0B2A03D0D8900C360D36D7
:100928000B2EFBD70C500D10D8A402D0010E01D00D
:10093800000E2C161200106E86EC05F0500E56ECC8
:1009480005F0105056EC05F082EC05F0510E56EC0F
:1009580005F0010EEBEC03F0116E78EC05F0115088
:1009680012002A5064082A6E2B5064082B6E2BC084
:1009780018F0196A070EFFEC02F02AC018F0196A7D
:10098800060EFFEC02F012000B500D02F3CF0FF031
:10099800F4CF10F00B500E02F35010260C500D023D
:1009A800F35010260FC00BF010C00CF01200000E10
:1009B8000F013B6F000E3A6F000E396F000E3C6F4F
:1009C800000E386F000E936E929092928080809203
:1009D80012000F6E86EC05F00F500F240F6E0F50AB
:1009E80056EC05F00D5056EC05F00E5056EC05F09F
:1009F80078EC05F012000F013B9D3B9F958C958E7E
:100A0800718E7298718872847086A00E756E010E50
:100A1800766E12000F013A9D3A9F948C948EAB8E9D
:100A2800AC98AB98AC84B886A00EAF6E010EB06ED1
:100A380012000E6E86EC05F0500E56EC05F00E50C6
:100A480056EC05F00D5056EC05F078EC05F0120068
:100A58000C6E728A0CC073FF72A2FED70B50D8B40A
:100A680004D00A0E736E72A2FED7729A12000D6E2F
:100A78000DC00BF02CC00CF00B2A02D0D8900C3211
:100A88000B2EFCD70C50010B1200C7A403D00B6A25
:100A98000B2A01D00B6AC5501F0B0B100009D8B4E4
:100AA8001200F3D70C6EC69E0CC0C9FF49EC05F0C6
:100AB800C5AC1200C584C5A41200FDD700EE25F010
:100AC800120EEE6AE806FDE137903792000119EF41
:100AD80000F071A202D07198718871A402D0719E41
:100AE800718E74CF33F0120049EC05F0C584C5A4AB
:100AF8001200FDD7A38AF28CF28E1200C582C5A21D
:0C0B08001200FDD7C580C5A01200FDD76B
:020000040020DA
:08000000FFFFFFFFFFFFFFFF00
:020000040030CA
:0E000000FF081F3CFFB580FF0FC00FE00F4050
:00000001FF
