:100000000C945D000C9485000C9485000C94850084
:100010000C9485000C9485000C9485000C9485004C
:100020000C9485000C9485000C9485000C9485003C
:100030000C9485000C9485000C9485000C9485002C
:100040000C947B020C9485000C94EB020C94C5027A
:100050000C9485000C9485000C9485000C9485000C
:100060000C9485000C9485000000000024002700FB
:100070002A0000000000250028002B0004040404CE
:100080000404040402020202020203030303030342
:10009000010204081020408001020408102001021F
:1000A00004081020000000080002010000030407FB
:1000B0000000000000000000600411241FBECFEF0C
:1000C000D8E0DEBFCDBF11E0A0E0B1E0E8E7F9E0A5
:1000D00002C005900D92A435B107D9F721E0A4E53F
:1000E000B1E001C01D92AC3FB207E1F710E0CDE5F1
:1000F000D0E004C02197FE010E94AF04CC35D107A7
:10010000C9F70E941D030C94BA040C940000E1EBA3
:10011000F0E09491EDE9F0E02491E9E8F0E0E49179
:10012000EE2309F43CC0992339F1933091F038F46F
:100130009130A9F0923001F594B59F7D12C09730AF
:1001400091F09830A1F09430B9F4909180009F7DA7
:1001500003C0909180009F77909380000DC094B56C
:100160009F7794BD09C09091B0009F7703C0909194
:10017000B0009F7D9093B000F0E0EE0FFF1FEE58AF
:10018000FF4FA591B4919FB7F894811104C08C9151
:100190002095282302C0EC912E2B2C939FBF08950D
:1001A0003FB7F89480915B0190915C01A0915D0153
:1001B000B0915E0126B5A89B05C02F3F19F00196AE
:1001C000A11DB11D3FBFBA2FA92F982F8827820FDD
:1001D000911DA11DB11DBC01CD0142E0660F771F2D
:1001E000881F991F4A95D1F70895CF92DF92EF9219
:1001F000FF920F931F93CF93DF936C017A018B01D2
:10020000C0E0D0E0CE15DF0581F0D8016D918D0101
:10021000D601ED91FC910190F081E02DC601099588
:10022000892B11F02196EECF7E01C701DF91CF918E
:100230001F910F91FF90EF90DF90CF900895089558
:1002400080E090E00895FC01538D448D252F30E02F
:10025000842F90E0821B930B541710F0CF960895D3
:1002600001970895FC01918D828D981761F0828D20
:10027000DF01A80FB11D5D968C91928D9F5F9F73DA
:10028000928F90E008958FEF9FEF0895FC01918D7C
:10029000828D981731F0828DE80FF11D858D90E0E9
:1002A00008958FEF9FEF0895FC01918D228D892F86
:1002B00090E0805C9F4F821B91098F73992708956E
:1002C0008FE591E00E94540121E0892B09F420E0A0
:1002D000822F0895FC01848DDF01A80FB11DA35A60
:1002E000BF4F2C91848D90E001968F739927848F56
:1002F000A689B7892C93A089B1898C918370806479
:100300008C93938D848D981306C00288F389E02D19
:1003100080818F7D80830895EF92FF920F931F93CA
:10032000CF93DF93EC0181E0888F9B8D8C8D9813A8
:1003300005C0E889F989808185FD26C0F62E0B8DE0
:1003400010E00F5F1F4F0F731127E02E8C8DE81206
:100350000CC00FB607FCFACFE889F989808185FFC8
:10036000F5CFCE010E946A01F1CF8B8DFE01E80F1F
:10037000F11DE35AFF4FF0829FB7F8940B8FEA8983
:10038000FB89808180620AC09FB7F894EE89FF895B
:100390006083E889F98980818370806480839FBF4E
:1003A00081E090E0DF91CF911F910F91FF90EF904E
:1003B0000895CF93DF93EC01888D8823C9F0EA89F3
:1003C000FB89808185FD05C0A889B9898C9186FD4E
:1003D0000FC00FB607FCF5CF808185FFF2CFA8894B
:1003E000B9898C9185FFEDCFCE010E946A01E7CFDC
:1003F000DF91CF91089580E090E0892B29F00E9451
:10040000600181110C9400000895009769F0FC01CF
:1004100001900020E9F73197AF01481B590BBC014F
:100420008FE591E00C94F50080E090E008958F92C4
:100430009F92AF92BF920F931F93CF93DF93CDB74D
:10044000DEB7A1970FB6F894DEBF0FBECDBF19A2DD
:10045000423008F44AE08E010F5D1F4F842E912C2C
:10046000A12CB12CA50194010E948D04E62FB901A5
:10047000CA0101501109EA3014F4E05D01C0E95CE1
:10048000D801EC93232B242B252B61F7C8010E9464
:100490000502A1960FB6F894DEBF0FBECDBFDF9167
:1004A000CF911F910F91BF90AF909F908F90089523
:1004B000CF92DF92EF92FF92CF93DF936B017C019B
:1004C0006DE28FE591E00E948C01EC0166277727B1
:1004D000CB016C197D098E099F094AE00E94170221
:1004E0008C0F9D1FDF91CF91FF90EF90DF90CF9009
:1004F00008950E94B5041F920F920FB60F92112417
:100500002F933F938F939F93AF93BF938091570106
:1005100090915801A0915901B0915A013091560122
:1005200023E0230F2D3720F40196A11DB11D05C036
:1005300026E8230F0296A11DB11D2093560180933A
:10054000570190935801A0935901B0935A0180919B
:100550005B0190915C01A0915D01B0915E010196FB
:10056000A11DB11D80935B0190935C01A0935D017F
:10057000B0935E01BF91AF919F918F913F912F9169
:100580000F900FBE0F901F9018951F920F920FB6ED
:100590000F9211242F933F934F935F936F937F9309
:1005A0008F939F93AF93BF93EF93FF938FE591E06A
:1005B0000E946A01FF91EF91BF91AF919F918F913E
:1005C0007F916F915F914F913F912F910F900FBE4F
:1005D0000F901F9018951F920F920FB60F92112433
:1005E0002F938F939F93EF93FF93E0916F01F0917F
:1005F00070018081E0917501F091760182FD12C059
:100600009081809178018F5F8F732091790182179B
:1006100051F0E0917801F0E0E15AFE4F958F809320
:10062000780101C08081FF91EF919F918F912F916F
:100630000F900FBE0F901F901895789484B582602C
:1006400084BD84B5816084BD85B5826085BD85B576
:10065000816085BD80916E00816080936E001092F4
:10066000810080918100826080938100809181006F
:100670008160809381008091800081608093800000
:100680008091B10084608093B1008091B00081605E
:100690008093B00080917A00846080937A0080918A
:1006A0007A00826080937A0080917A0081608093E2
:1006B0007A0080917A00806880937A001092C1005D
:1006C000E0916F01F091700182E08083E0916B0115
:1006D000F0916C011082E0916D01F0916E018FEC50
:1006E000808310927701E0917301F091740186E0AC
:1006F0008083E0917101F09172018081806180833B
:10070000E0917101F0917201808188608083E091B5
:100710007101F0917201808180688083E0917101A4
:10072000F091720180818F7D8083EDE9F0E024916A
:10073000E9E8F0E08491882399F090E0880F991F10
:10074000FC01E859FF4FA591B491FC01EE58FF4F11
:10075000859194918FB7F894EC91E22BEC938FBF35
:100760008091540190915501019690935501809389
:1007700054010E94D0004B015C018CE2C82EDD24A4
:10078000D394E12CF12C0E94D000DC01CB0188191C
:100790009909AA09BB09883E9340A105B10598F3C0
:1007A00021E0C21AD108E108F10888EE880E83E042
:1007B000981EA11CB11CC114D104E104F10419F765
:1007C0008FE391E00E94050282E191E00E94050220
:1007D00087E191E00E9405026091540170915501FA
:1007E000072E000C880B990B97FF03C00E9458023C
:1007F00003C04AE00E94170282E591E00E940502D0
:100800008FE391E00E9405028AE191E00E940502D7
:1008100087E191E00E9405028FE291E00E940502CB
:100820008FE191E00E94050284E291E00E940502BE
:100830008FE391E00E94050289E291E00E940502A7
:1008400087E191E00E9405028EE291E00E9405029C
:1008500084E391E00E94050289E391E00E94050291
:100860008EE391E00E9405028FE591E00E94540121
:100870001816190614F58FE591E00E943201EC017B
:1008800081E0C234D80711F481E001C080E00E9409
:10089000870084E491E00E940502BE01DD0F880B11
:1008A000990B97FF03C00E94580203C04AE00E94C0
:1008B000170281E591E00E9405020E94FB0150CFE2
:1008C000EFE5F1E01382128288EE93E0A0E0B0E061
:1008D00084839583A683B78384E091E091838083AA
:1008E00085EC90E09587848784EC90E097878687F5
:1008F00080EC90E0918B808B81EC90E0938B828BED
:1009000082EC90E0958B848B86EC90E0978B868BC5
:10091000118E128E138E148E0895A1E21A2EAA1B28
:10092000BB1BFD010DC0AA1FBB1FEE1FFF1FA2179F
:10093000B307E407F50720F0A21BB30BE40BF50B9C
:10094000661F771F881F991F1A9469F76095709525
:10095000809590959B01AC01BD01CF010895EE0FEC
:10096000FF1F0590F491E02D099481E090E0F89448
:080970000C94BA04F894FFCFC7
:10097800000000008C01F5002301D9015401320167
:100988004601544D500A00230A004143430A0032ED
:1009980030300A003330300A004759520A002D31EE
:1009A80030300A003232300A003534300A0024244C
:1009B8000A003100492072656365697665643A20EA
:0409C800000D0A0014
:107E0000112484B714BE81FFF0D085E080938100F7
:107E100082E08093C00088E18093C10086E0809377
:107E2000C20080E18093C4008EE0C9D0259A86E02C
:107E300020E33CEF91E0309385002093840096BBD3
:107E4000B09BFECF1D9AA8958150A9F7CC24DD24C4
:107E500088248394B5E0AB2EA1E19A2EF3E0BF2EE7
:107E6000A2D0813461F49FD0082FAFD0023811F036
:107E7000013811F484E001C083E08DD089C08234E0
:107E800011F484E103C0853419F485E0A6D080C0E4
:107E9000853579F488D0E82EFF2485D0082F10E0AE
:107EA000102F00270E291F29000F111F8ED06801E7
:107EB0006FC0863521F484E090D080E0DECF843638
:107EC00009F040C070D06FD0082F6DD080E0C81688
:107ED00080E7D80618F4F601B7BEE895C0E0D1E017
:107EE00062D089930C17E1F7F0E0CF16F0E7DF06D8
:107EF00018F0F601B7BEE89568D007B600FCFDCFD4
:107F0000A601A0E0B1E02C9130E011968C91119780
:107F100090E0982F8827822B932B1296FA010C0160
:107F200087BEE89511244E5F5F4FF1E0A038BF0790
:107F300051F7F601A7BEE89507B600FCFDCF97BE46
:107F4000E89526C08437B1F42ED02DD0F82E2BD052
:107F50003CD0F601EF2C8F010F5F1F4F84911BD097
:107F6000EA94F801C1F70894C11CD11CFA94CF0C13
:107F7000D11C0EC0853739F428D08EE10CD085E9AC
:107F80000AD08FE07ACF813511F488E018D01DD067
:107F900080E101D065CF982F8091C00085FFFCCF94
:107FA0009093C60008958091C00087FFFCCF809118
:107FB000C00084FD01C0A8958091C6000895E0E648
:107FC000F0E098E1908380830895EDDF803219F02E
:107FD00088E0F5DFFFCF84E1DECF1F93182FE3DFCA
:107FE0001150E9F7F2DF1F91089580E0E8DFEE27F6
:047FF000FF270994CA
:027FFE00040479
:0400000300007E007B
:00000001FF
