:020000040000FA
:0400000017EF00F006
:100008004682D9CF09F0DACF0AF09DBA9EAA05D068
:1000180010EC02F0D0EC00F09E9A0AC0DAFF09C09A
:10002800D9FF46921100BBEF01F0E3EC01F0000E9E
:10003800356E000E256E000E246E000E276E640EBF
:10004800266E0A0E82EC00F024502F6E000E256EEC
:10005800000E246E000E276E640E266E0C0E82ECC7
:1000680000F02450306E000E256E000E246E000E37
:10007800276E640E266E090E82EC00F02450316E55
:10008800000E256E000E246E000E276E640E266E7E
:10009800080E82EC00F02450326E000E256E000E21
:1000A800246E000E276E640E266E0F0E82EC00F092
:1000B8002450336E000E256E000E246E000E276E3F
:1000C800640E266E0E0E82EC00F02450346E83CF40
:1000D80035F0010E366E2E0E3624D96EDA6A000E11
:1000E800DA22370E3624E16EE26A000EE222DFCF12
:1000F800E7FF362A070E3664EED79BD72D6E2DC044
:1001080028F028462846C2502818830B2818C26EA3
:10011800C2800D0EE82EFED700F0C282C2B2FED712
:10012800C290C4CF28F0030E281628502A6E296AD8
:10013800C3502912000E2A1229C00BF02AC00CF055
:10014800000E0CBEFF0E0D6E0E6E2450265C2B6E3C
:10015800255027582C6E2BC00FF02CC010F0116AB8
:10016800126A56EC01F00BC017F00CC018F00DC065
:1001780019F00EC01AF0FF0E1B6E030E1C6E000E57
:100188001D6E000E1E6E15EC01F024501724246E0F
:1001980025501820256E120080904150D8A40AD00E
:1001A8004404D8A402D0010E01D0020E416E010E03
:1001B800416E12004104D8A409D04104D8A406D045
:1001C80044509FEC01F0000E416E12004104D8A487
:1001D8001200020E4118D8A412004250D8A403D02D
:1001E80044C042F012004350D8A403D044C043F0A6
:1001F800120043C001F0445081EC01F00009D8B46A
:100208000BD0370E4224D96EDA6A000EDA2244C0C7
:10021800DFFF000E426ED7D7000E426E000E416E11
:100228001200000E1F6E000E206E000E216E000ED2
:10023800226E1B501C101D101E10D8B42AD0010E9F
:10024800236E06D0D8901B361C361D361E36232A40
:100258001EAEF8D7D8901F362036213622361B50CE
:10026800175C1C5018581D5019581E501A58D8A001
:1002780009D01B50175E1C50185A1D50195A1E5091
:100288001A5A1F80D8901E321D321C321B32232E60
:10029800E1D71FC017F020C018F021C019F022C004
:1002A8001AF01200000E136E000E146E000E156E7A
:1002B800000E166E0BA008D00F50132610501422F3
:1002C8001150152212501622D8900F3610361136BA
:1002D8001236D8900E320D320C320B320B500C10F5
:1002E8000D100E10D8A4E6D713C00BF014C00CF0F4
:1002F80015C00DF016C00EF01200086E0850026E00
:10030800036A0150046E056AAA0E0412000E051253
:100318000150AA0B066E076A0450061A0550071A00
:100328000250061806E103500718D8A402D0010E9F
:100338001200000E1200056E8080000E036E370E4C
:100348000524D96EDA6A000EDA22DF5001EC02F0D9
:10035800000E036E370E0524D96EDA6A000EDA2213
:10036800DF5027EC02F001EC02F080901200680EDA
:10037800F66E040EF76E000EF86E0900F5CF45F024
:1003880000EE37F00E0EEE6AE806FDE14690469262
:10039800000119EF00F0000E0F013B6F0C0E3A6FD1
:1003A8000F0E396F000E3C6F010E386F92908090DF
:1003B80092820F0E93120C0E941295681200700E12
:1003C800D312D350FC0B0209D36ECFEC01F0F2EC40
:1003D80001F01DEC02F030EC02F012000F013A9D22
:1003E8003A9F948C948EAB8EAC98AB88AC84B886CC
:1003F800A00EAF6E010EB06E1200046EAC8A04C07F
:10040800ADFFACA2FED70350D8B404D00A0EAD6E2F
:10041800ACA2FED7AC9A1200ABA202D0AB98AB88C4
:10042800ABA402D0AB9EAB8EAECF44F0000E456EAF
:100438001200C050C70B2809C06EC050F80B050940
:10044800C06EC08E1200026E02C001F0AA0E011228
:100458000250AA0B011812009D8AF28CF28E12002B
:010468000192
:020000040020DA
:08000000FFFFFFFFFFFFFFFF00
:020000040030CA
:0E000000FF081F3CFFB580FF0FC00FE00F4050
:00000001FF
