:020000040000FA
:0400000017EF00F006
:100008004882D9CF09F0DACF0AF09DBA9EAA05D066
:100018005CEC02F018EC01F09E9A0AC0DAFF09C005
:10002800D9FF489211001BEF02F02FEC02F0000EEE
:10003800256E000E246E000E276E640E266E180EB6
:10004800CAEC00F02450306E000E256E000E246EAF
:10005800000E276E640E266E190ECAEC00F02450AE
:10006800316E000E256E000E246E000E276E640E93
:10007800266E0B0ECAEC00F02450326E000E256E70
:10008800000E246E000E276E640E266E0D0ECAEC4E
:1000980000F02450336E000E256E000E246E000E04
:1000A800276E640E266E080ECAEC00F02450346EDB
:1000B800000E256E000E246E000E276E640E266E4E
:1000C800150ECAEC00F02450356E000E376E82A86B
:1000D80002D0010E01D0000E371282AA03D02E6A78
:1000E8002E2A01D02E6AD8902E34371283A403D03A
:1000F8002E6A2E2A01D02E6AD8902E36D8902E3409
:10010800371283A603D02E6A2E2A01D02E6AD890E1
:100118002E36D8902E36D8902E34371284A203D09B
:100128002E6A2E2A01D02E6A2E38F00B371284A49C
:1001380003D0200E2E6E01D02E6A2E50371282A6C2
:1001480003D0400E2E6E01D02E6A2E50371280A496
:1001580003D0800E2E6E01D02E6A2E50371237C073
:1001680036F0010E386E2F0E3824D96EDA6A000E7A
:10017800DA22390E3824E16EE26A000EE222DFCF7D
:10018800E7FF382A070E3864EED751D72D6E2DC0F9
:1001980028F028462846C2502818830B2818C26E13
:1001A800C2800D0EE82EFED700F0C282C2B2FED782
:1001B800C290C4CF28F0030E281628502A6E296A48
:1001C800C3502912000E2A1229C00BF02AC00CF0C5
:1001D800000E0CBEFF0E0D6E0E6E2450265C2B6EAC
:1001E800255027582C6E2BC00FF02CC010F0116A28
:1001F800126A9EEC01F00BC017F00CC018F00DC08D
:1002080019F00EC01AF0FF0E1B6E030E1C6E000EC6
:100218001D6E000E1E6E5DEC01F024501724246E36
:1002280025501820256E120081964350D8A40AD074
:100238004604D8A402D0010E01D0020E436E010E6E
:10024800436E12004304D8A409D04304D8A406D0AE
:100258004650E7EC01F0000E436E12004304D8A4A8
:100268001200020E4318D8A412004450D8A403D098
:1002780046C044F012004550D8A403D046C045F00B
:10028800120045C001F04650C9EC01F00009D8B48D
:100298000BD0390E4424D96EDA6A000EDA2246C031
:1002A800DFFF000E446ED7D7000E446E000E436E7B
:1002B8001200000E1F6E000E206E000E216E000E42
:1002C800226E1B501C101D101E10D8B42AD0010E0F
:1002D800236E06D0D8901B361C361D361E36232AB0
:1002E8001EAEF8D7D8901F362036213622361B503E
:1002F800175C1C5018581D5019581E501A58D8A071
:1003080009D01B50175E1C50185A1D50195A1E5000
:100318001A5A1F80D8901E321D321C321B32232ECF
:10032800E1D71FC017F020C018F021C019F022C073
:100338001AF01200000E136E000E146E000E156EE9
:10034800000E166E0BA008D00F5013261050142262
:100358001150152212501622D8900F361036113629
:100368001236D8900E320D320C320B320B500C1064
:100378000D100E10D8A4E6D713C00BF014C00CF063
:1003880015C00DF016C00EF01200086E0850026E6F
:10039800036A0150046E056AAA0E0412000E0512C3
:1003A8000150AA0B066E076A0450061A0550071A70
:1003B8000250061806E103500718D8A402D0010E0F
:1003C8001200000E1200056E8186000E036E390EB3
:1003D8000524D96EDA6A000EDA22DF504DEC02F0FD
:1003E800000E036E390E0524D96EDA6A000EDA2281
:1003F800DF5073EC02F04DEC02F081961200000E13
:100408000F01386F340E396F000E3A6F320E3B6FA2
:10041800000E3C6F060E9212340E9312380E941290
:100428003E0E9512060E9612939681961200000EB5
:10043800F66E050EF76E000EF86E0900F5CF47F060
:1004480000EE39F00E0EEE6AE806FDE1489048929B
:10045800000119EF00F0700ED312D350FC0B020903
:10046800D36E03EC02F03EEC02F069EC02F07CEC97
:1004780002F012000F013A9D3A9F948C948EAB8E35
:10048800AC98AB88AC84B886A00EAF6E010EB06E87
:100498001200046EAC8A04C0ADFFACA2FED70350B4
:1004A800D8B404D00A0EAD6EACA2FED7AC9A120036
:1004B800ABA202D0AB98AB88ABA402D0AB9EAB8EFC
:1004C800AECF46F0000E476E1200C050C70B280989
:1004D800C06EC050F80B0509C06EC08E1200026EC7
:1004E80002C001F0AA0E01120250AA0B0118120054
:0904F8009D8AF28CF28E120001C3
:020000040020DA
:08000000FFFFFFFFFFFFFFFF00
:020000040030CA
:0E000000FF081F3CFFB580FF0FC00FE00F4050
:00000001FF
