:020000040000FA
:04000000E3EF3EF0FC
:107DC60000013CEF3FF0C050C70B2809C06EC05001
:107DD600F80B0509C06EC08E1200026EAC8A02C096
:107DE600ADFFACA2FED70150D8B404D00A0EAD6EDA
:107DF600ACA2FED7AC9A12000F013A9D3A9F948C22
:107E0600948EAB8EAC98AB98AC84B886A00EAF6E51
:107E1600010EB06E9D9AF29CF29E1200000E096E43
:107E2600000E0A6E000E0B6E000E0C6E01A008D03E
:107E36000550092606500A2207500B2208500C222C
:107E4600D8900536063607360836D89004320332FF
:107E5600023201320150021003100410D8A4E6D7F2
:107E660009C001F00AC002F00BC003F00CC004F018
:107E76001200700ED312D350FC0B0209D36E000E03
:107E86000F01386F000E396F000E3A6F000E3B6F10
:107E9600000E3C6F000E266EFFEC3EF0E6EC3EF068
:107EA60092900F01389192843885939895689390B3
:107EB6008080000E1B6E000E1A6E000E1D6E640E84
:107EC6001C6E020EB2EC3FF01AC027F01BC028F061
:107ED600010E016E2750F0EC3EF0EBD7000E156E4A
:107EE600000E166E000E176E000E186E1150121050
:107EF60013101410D8B42AD0010E196E06D0D890DB
:107F06001136123613361436192A14AEF8D7D8900D
:107F1600153616361736183611500D5C12500E5897
:107F260013500F5814501058D8A009D011500D5E98
:107F360012500E5A13500F5A1450105A1580D890DA
:107F46001432133212321132192EE1D715C00DF048
:107F560016C00EF017C00FF018C010F01200236EF6
:107F660023C01EF01E461E46C2501E18830B1E1846
:107F7600C26EC2800D0EE82EFED700F0C282C2B2DB
:107F8600FED7C290C4CF1EF0030E1E161E50206EE2
:107F96001F6AC3501F12000E20121FC001F020C01E
:107FA60002F0000E02BEFF0E036E046E1A501C5C39
:107FB600216E1B501D58226E21C005F022C006F00E
:107FC600076A086A11EC3FF001C00DF002C00EF01E
:107FD60003C00FF004C010F0FF0E116E030E126EF8
:107FE600000E136E000E146E71EC3FF01A500D2445
:0A7FF6001A6E1B500E201B6E1200C5
:020000040020DA
:08000000FFFFFFFFFFFFFFFF00
:020000040030CA
:0E000000FF081F3CFFB580FF0FC00FE00F4050
:00000001FF
